:100000000C9446000C945D000C945D000C945D0013
:100010000C945D000C945D000C945D000C945D00EC
:100020000C945D000C945D000C945D000C945D00DC
:100030000C945D000C945D000C945D000C945D00CC
:100040000C945D000C945D000C945D000C945D00BC
:100050000C945D000C945D000C945D000C945D00AC
:100060000C945D000C945D000C945D000C945D009C
:100070000C945D000C945D000C945D000C945D008C
:100080000C945D000C945D000C945D0011241FBE67
:10009000CFEFD0E4DEBFCDBF11E0A0E0B1E0EAE2F7
:1000A000F1E000E00BBF02C007900D92AE30B10747
:1000B000D9F70E9478000C9493000C940000CF9321
:1000C000C82F8A3019F48DE00E945F009091C00023
:1000D00095FFFCCFC093C60080E090E0CF910895DB
:1000E00090E002C0959587956A95E2F78170089532
:1000F00011B88FEF82B914B885B987B918B8C0E0C4
:10010000D0E00DC080B16C2F0E9470008111DF5FC4
:1001100083B16C2F0E9470008111DF5FCF5FC83008
:0A01200088F3D8B9ECCFF894FFCFB4
:0E012A0000000002000000005F000000000066
:00000001FF
